{
  "_format": "hh-sol-artifact-1",
  "contractName": "HachikoTest",
  "sourceName": "contracts/HachikoTest.sol",
  "abi": [
    {
      "inputs": [
        {
          "internalType": "string",
          "name": "name",
          "type": "string"
        },
        {
          "internalType": "string",
          "name": "symbol",
          "type": "string"
        },
        {
          "internalType": "string",
          "name": "baseTokenURI",
          "type": "string"
        }
      ],
      "stateMutability": "nonpayable",
      "type": "constructor"
    },
    {
      "anonymous": false,
      "inputs": [
        {
          "indexed": true,
          "internalType": "address",
          "name": "owner",
          "type": "address"
        },
        {
          "indexed": true,
          "internalType": "address",
          "name": "approved",
          "type": "address"
        },
        {
          "indexed": true,
          "internalType": "uint256",
          "name": "tokenId",
          "type": "uint256"
        }
      ],
      "name": "Approval",
      "type": "event"
    },
    {
      "anonymous": false,
      "inputs": [
        {
          "indexed": true,
          "internalType": "address",
          "name": "owner",
          "type": "address"
        },
        {
          "indexed": true,
          "internalType": "address",
          "name": "operator",
          "type": "address"
        },
        {
          "indexed": false,
          "internalType": "bool",
          "name": "approved",
          "type": "bool"
        }
      ],
      "name": "ApprovalForAll",
      "type": "event"
    },
    {
      "anonymous": false,
      "inputs": [
        {
          "indexed": true,
          "internalType": "address",
          "name": "previousOwner",
          "type": "address"
        },
        {
          "indexed": true,
          "internalType": "address",
          "name": "newOwner",
          "type": "address"
        }
      ],
      "name": "OwnershipTransferred",
      "type": "event"
    },
    {
      "anonymous": false,
      "inputs": [
        {
          "indexed": true,
          "internalType": "address",
          "name": "from",
          "type": "address"
        },
        {
          "indexed": true,
          "internalType": "address",
          "name": "to",
          "type": "address"
        },
        {
          "indexed": true,
          "internalType": "uint256",
          "name": "tokenId",
          "type": "uint256"
        }
      ],
      "name": "Transfer",
      "type": "event"
    },
    {
      "inputs": [
        {
          "internalType": "address",
          "name": "to",
          "type": "address"
        },
        {
          "internalType": "uint256",
          "name": "tokenId",
          "type": "uint256"
        }
      ],
      "name": "approve",
      "outputs": [],
      "stateMutability": "nonpayable",
      "type": "function"
    },
    {
      "inputs": [
        {
          "internalType": "address",
          "name": "owner",
          "type": "address"
        }
      ],
      "name": "balanceOf",
      "outputs": [
        {
          "internalType": "uint256",
          "name": "",
          "type": "uint256"
        }
      ],
      "stateMutability": "view",
      "type": "function"
    },
    {
      "inputs": [
        {
          "internalType": "uint256",
          "name": "tokenId",
          "type": "uint256"
        }
      ],
      "name": "getApproved",
      "outputs": [
        {
          "internalType": "address",
          "name": "",
          "type": "address"
        }
      ],
      "stateMutability": "view",
      "type": "function"
    },
    {
      "inputs": [
        {
          "internalType": "address",
          "name": "owner",
          "type": "address"
        },
        {
          "internalType": "address",
          "name": "operator",
          "type": "address"
        }
      ],
      "name": "isApprovedForAll",
      "outputs": [
        {
          "internalType": "bool",
          "name": "",
          "type": "bool"
        }
      ],
      "stateMutability": "view",
      "type": "function"
    },
    {
      "inputs": [],
      "name": "isPublicSaleActive",
      "outputs": [
        {
          "internalType": "bool",
          "name": "status",
          "type": "bool"
        }
      ],
      "stateMutability": "view",
      "type": "function"
    },
    {
      "inputs": [
        {
          "internalType": "uint256",
          "name": "amount",
          "type": "uint256"
        }
      ],
      "name": "mintPublic",
      "outputs": [],
      "stateMutability": "payable",
      "type": "function"
    },
    {
      "inputs": [],
      "name": "name",
      "outputs": [
        {
          "internalType": "string",
          "name": "",
          "type": "string"
        }
      ],
      "stateMutability": "view",
      "type": "function"
    },
    {
      "inputs": [],
      "name": "owner",
      "outputs": [
        {
          "internalType": "address",
          "name": "",
          "type": "address"
        }
      ],
      "stateMutability": "view",
      "type": "function"
    },
    {
      "inputs": [
        {
          "internalType": "uint256",
          "name": "tokenId",
          "type": "uint256"
        }
      ],
      "name": "ownerOf",
      "outputs": [
        {
          "internalType": "address",
          "name": "",
          "type": "address"
        }
      ],
      "stateMutability": "view",
      "type": "function"
    },
    {
      "inputs": [],
      "name": "renounceOwnership",
      "outputs": [],
      "stateMutability": "nonpayable",
      "type": "function"
    },
    {
      "inputs": [
        {
          "internalType": "uint256",
          "name": "amount",
          "type": "uint256"
        }
      ],
      "name": "reserve",
      "outputs": [],
      "stateMutability": "nonpayable",
      "type": "function"
    },
    {
      "inputs": [
        {
          "internalType": "address",
          "name": "from",
          "type": "address"
        },
        {
          "internalType": "address",
          "name": "to",
          "type": "address"
        },
        {
          "internalType": "uint256",
          "name": "tokenId",
          "type": "uint256"
        }
      ],
      "name": "safeTransferFrom",
      "outputs": [],
      "stateMutability": "nonpayable",
      "type": "function"
    },
    {
      "inputs": [
        {
          "internalType": "address",
          "name": "from",
          "type": "address"
        },
        {
          "internalType": "address",
          "name": "to",
          "type": "address"
        },
        {
          "internalType": "uint256",
          "name": "tokenId",
          "type": "uint256"
        },
        {
          "internalType": "bytes",
          "name": "_data",
          "type": "bytes"
        }
      ],
      "name": "safeTransferFrom",
      "outputs": [],
      "stateMutability": "nonpayable",
      "type": "function"
    },
    {
      "inputs": [
        {
          "internalType": "address",
          "name": "operator",
          "type": "address"
        },
        {
          "internalType": "bool",
          "name": "approved",
          "type": "bool"
        }
      ],
      "name": "setApprovalForAll",
      "outputs": [],
      "stateMutability": "nonpayable",
      "type": "function"
    },
    {
      "inputs": [
        {
          "internalType": "string",
          "name": "baseTokenURI",
          "type": "string"
        }
      ],
      "name": "setBaseTokenURI",
      "outputs": [],
      "stateMutability": "nonpayable",
      "type": "function"
    },
    {
      "inputs": [
        {
          "internalType": "bytes4",
          "name": "interfaceId",
          "type": "bytes4"
        }
      ],
      "name": "supportsInterface",
      "outputs": [
        {
          "internalType": "bool",
          "name": "",
          "type": "bool"
        }
      ],
      "stateMutability": "view",
      "type": "function"
    },
    {
      "inputs": [],
      "name": "symbol",
      "outputs": [
        {
          "internalType": "string",
          "name": "",
          "type": "string"
        }
      ],
      "stateMutability": "view",
      "type": "function"
    },
    {
      "inputs": [],
      "name": "togglePublicSale",
      "outputs": [],
      "stateMutability": "nonpayable",
      "type": "function"
    },
    {
      "inputs": [
        {
          "internalType": "uint256",
          "name": "index",
          "type": "uint256"
        }
      ],
      "name": "tokenByIndex",
      "outputs": [
        {
          "internalType": "uint256",
          "name": "",
          "type": "uint256"
        }
      ],
      "stateMutability": "view",
      "type": "function"
    },
    {
      "inputs": [
        {
          "internalType": "address",
          "name": "owner",
          "type": "address"
        },
        {
          "internalType": "uint256",
          "name": "index",
          "type": "uint256"
        }
      ],
      "name": "tokenOfOwnerByIndex",
      "outputs": [
        {
          "internalType": "uint256",
          "name": "",
          "type": "uint256"
        }
      ],
      "stateMutability": "view",
      "type": "function"
    },
    {
      "inputs": [
        {
          "internalType": "uint256",
          "name": "tokenId",
          "type": "uint256"
        }
      ],
      "name": "tokenURI",
      "outputs": [
        {
          "internalType": "string",
          "name": "",
          "type": "string"
        }
      ],
      "stateMutability": "view",
      "type": "function"
    },
    {
      "inputs": [],
      "name": "totalSupply",
      "outputs": [
        {
          "internalType": "uint256",
          "name": "",
          "type": "uint256"
        }
      ],
      "stateMutability": "view",
      "type": "function"
    },
    {
      "inputs": [
        {
          "internalType": "address",
          "name": "from",
          "type": "address"
        },
        {
          "internalType": "address",
          "name": "to",
          "type": "address"
        },
        {
          "internalType": "uint256",
          "name": "tokenId",
          "type": "uint256"
        }
      ],
      "name": "transferFrom",
      "outputs": [],
      "stateMutability": "nonpayable",
      "type": "function"
    },
    {
      "inputs": [
        {
          "internalType": "address",
          "name": "newOwner",
          "type": "address"
        }
      ],
      "name": "transferOwnership",
      "outputs": [],
      "stateMutability": "nonpayable",
      "type": "function"
    },
    {
      "inputs": [],
      "name": "withdraw",
      "outputs": [],
      "stateMutability": "nonpayable",
      "type": "function"
    },
    {
      "stateMutability": "payable",
      "type": "receive"
    }
  ],
  "bytecode": "0x60806040526000600c60006101000a81548160ff0219169083151502179055503480156200002c57600080fd5b50604051620041a4380380620041a48339818101604052810190620000529190620003ed565b828281600090805190602001906200006c929190620001a0565b50806001908051906020019062000085929190620001a0565b505050620000a86200009c620000d260201b60201c565b620000da60201b60201c565b6001600b8190555080600d9080519060200190620000c8929190620001a0565b505050506200050b565b600033905090565b6000600a60009054906101000a900473ffffffffffffffffffffffffffffffffffffffff16905081600a60006101000a81548173ffffffffffffffffffffffffffffffffffffffff021916908373ffffffffffffffffffffffffffffffffffffffff1602179055508173ffffffffffffffffffffffffffffffffffffffff168173ffffffffffffffffffffffffffffffffffffffff167f8be0079c531659141344cd1fd0a4f28419497f9722a3daafe3b4186f6b6457e060405160405180910390a35050565b828054620001ae90620004d5565b90600052602060002090601f016020900481019282620001d257600085556200021e565b82601f10620001ed57805160ff19168380011785556200021e565b828001600101855582156200021e579182015b828111156200021d57825182559160200191906001019062000200565b5b5090506200022d919062000231565b5090565b5b808211156200024c57600081600090555060010162000232565b5090565b6000604051905090565b600080fd5b600080fd5b600080fd5b600080fd5b6000601f19601f8301169050919050565b7f4e487b7100000000000000000000000000000000000000000000000000000000600052604160045260246000fd5b620002b9826200026e565b810181811067ffffffffffffffff82111715620002db57620002da6200027f565b5b80604052505050565b6000620002f062000250565b9050620002fe8282620002ae565b919050565b600067ffffffffffffffff8211156200032157620003206200027f565b5b6200032c826200026e565b9050602081019050919050565b60005b83811015620003595780820151818401526020810190506200033c565b8381111562000369576000848401525b50505050565b600062000386620003808462000303565b620002e4565b905082815260208101848484011115620003a557620003a462000269565b5b620003b284828562000339565b509392505050565b600082601f830112620003d257620003d162000264565b5b8151620003e48482602086016200036f565b91505092915050565b6000806000606084860312156200040957620004086200025a565b5b600084015167ffffffffffffffff8111156200042a57620004296200025f565b5b6200043886828701620003ba565b935050602084015167ffffffffffffffff8111156200045c576200045b6200025f565b5b6200046a86828701620003ba565b925050604084015167ffffffffffffffff8111156200048e576200048d6200025f565b5b6200049c86828701620003ba565b9150509250925092565b7f4e487b7100000000000000000000000000000000000000000000000000000000600052602260045260246000fd5b60006002820490506001821680620004ee57607f821691505b60208210811415620005055762000504620004a6565b5b50919050565b613c89806200051b6000396000f3fe60806040526004361061016a5760003560e01c80636352211e116100d1578063a22cb4651161008a578063e222c7f911610064578063e222c7f914610545578063e985e9c51461055c578063efd0cbf914610599578063f2fde38b146105b557610171565b8063a22cb465146104b6578063b88d4fde146104df578063c87b56dd1461050857610171565b80636352211e146103a657806370a08231146103e3578063715018a614610420578063819b25ba146104375780638da5cb5b1461046057806395d89b411461048b57610171565b806323b872dd1161012357806323b872dd1461029a5780632f745c59146102c357806330176e13146103005780633ccfd60b1461032957806342842e0e146103405780634f6ccce71461036957610171565b806301ffc9a71461017657806306fdde03146101b3578063081812fc146101de578063095ea7b31461021b57806318160ddd146102445780631e84c4131461026f57610171565b3661017157005b600080fd5b34801561018257600080fd5b5061019d600480360381019061019891906126f2565b6105de565b6040516101aa919061273a565b60405180910390f35b3480156101bf57600080fd5b506101c8610658565b6040516101d591906127ee565b60405180910390f35b3480156101ea57600080fd5b5061020560048036038101906102009190612846565b6106ea565b60405161021291906128b4565b60405180910390f35b34801561022757600080fd5b50610242600480360381019061023d91906128fb565b61076f565b005b34801561025057600080fd5b50610259610887565b604051610266919061294a565b60405180910390f35b34801561027b57600080fd5b50610284610894565b604051610291919061273a565b60405180910390f35b3480156102a657600080fd5b506102c160048036038101906102bc9190612965565b6108ab565b005b3480156102cf57600080fd5b506102ea60048036038101906102e591906128fb565b61090b565b6040516102f7919061294a565b60405180910390f35b34801561030c57600080fd5b5061032760048036038101906103229190612aed565b6109b0565b005b34801561033557600080fd5b5061033e610a46565b005b34801561034c57600080fd5b5061036760048036038101906103629190612965565b610b4f565b005b34801561037557600080fd5b50610390600480360381019061038b9190612846565b610b6f565b60405161039d919061294a565b60405180910390f35b3480156103b257600080fd5b506103cd60048036038101906103c89190612846565b610be0565b6040516103da91906128b4565b60405180910390f35b3480156103ef57600080fd5b5061040a60048036038101906104059190612b36565b610c92565b604051610417919061294a565b60405180910390f35b34801561042c57600080fd5b50610435610d4a565b005b34801561044357600080fd5b5061045e60048036038101906104599190612846565b610dd2565b005b34801561046c57600080fd5b50610475610e5b565b60405161048291906128b4565b60405180910390f35b34801561049757600080fd5b506104a0610e85565b6040516104ad91906127ee565b60405180910390f35b3480156104c257600080fd5b506104dd60048036038101906104d89190612b8f565b610f17565b005b3480156104eb57600080fd5b5061050660048036038101906105019190612c70565b610f2d565b005b34801561051457600080fd5b5061052f600480360381019061052a9190612846565b610f8f565b60405161053c91906127ee565b60405180910390f35b34801561055157600080fd5b5061055a611036565b005b34801561056857600080fd5b50610583600480360381019061057e9190612cf3565b6110de565b604051610590919061273a565b60405180910390f35b6105b360048036038101906105ae9190612846565b611172565b005b3480156105c157600080fd5b506105dc60048036038101906105d79190612b36565b61127b565b005b60007f780e9d63000000000000000000000000000000000000000000000000000000007bffffffffffffffffffffffffffffffffffffffffffffffffffffffff1916827bffffffffffffffffffffffffffffffffffffffffffffffffffffffff19161480610651575061065082611373565b5b9050919050565b60606000805461066790612d62565b80601f016020809104026020016040519081016040528092919081815260200182805461069390612d62565b80156106e05780601f106106b5576101008083540402835291602001916106e0565b820191906000526020600020905b8154815290600101906020018083116106c357829003601f168201915b5050505050905090565b60006106f582611455565b610734576040517f08c379a000000000000000000000000000000000000000000000000000000000815260040161072b90612e06565b60405180910390fd5b6004600083815260200190815260200160002060009054906101000a900473ffffffffffffffffffffffffffffffffffffffff169050919050565b600061077a82610be0565b90508073ffffffffffffffffffffffffffffffffffffffff168373ffffffffffffffffffffffffffffffffffffffff1614156107eb576040517f08c379a00000000000000000000000000000000000000000000000000000000081526004016107e290612e98565b60405180910390fd5b8073ffffffffffffffffffffffffffffffffffffffff1661080a6114c1565b73ffffffffffffffffffffffffffffffffffffffff1614806108395750610838816108336114c1565b6110de565b5b610878576040517f08c379a000000000000000000000000000000000000000000000000000000000815260040161086f90612f2a565b60405180910390fd5b61088283836114c9565b505050565b6000600880549050905090565b6000600c60009054906101000a900460ff16905090565b6108bc6108b66114c1565b82611582565b6108fb576040517f08c379a00000000000000000000000000000000000000000000000000000000081526004016108f290612fbc565b60405180910390fd5b610906838383611660565b505050565b600061091683610c92565b8210610957576040517f08c379a000000000000000000000000000000000000000000000000000000000815260040161094e9061304e565b60405180910390fd5b600660008473ffffffffffffffffffffffffffffffffffffffff1673ffffffffffffffffffffffffffffffffffffffff168152602001908152602001600020600083815260200190815260200160002054905092915050565b6109b86114c1565b73ffffffffffffffffffffffffffffffffffffffff166109d6610e5b565b73ffffffffffffffffffffffffffffffffffffffff1614610a2c576040517f08c379a0000000000000000000000000000000000000000000000000000000008152600401610a23906130ba565b60405180910390fd5b80600d9080519060200190610a429291906125e3565b5050565b610a4e6114c1565b73ffffffffffffffffffffffffffffffffffffffff16610a6c610e5b565b73ffffffffffffffffffffffffffffffffffffffff1614610ac2576040517f08c379a0000000000000000000000000000000000000000000000000000000008152600401610ab9906130ba565b60405180910390fd5b60004790503373ffffffffffffffffffffffffffffffffffffffff166108fc829081150290604051600060405180830381858888f19350505050610b3b576040517f08c379a0000000000000000000000000000000000000000000000000000000008152600401610b3290613126565b60405180910390fd5b60004714610b4c57610b4b613146565b5b50565b610b6a83838360405180602001604052806000815250610f2d565b505050565b6000610b79610887565b8210610bba576040517f08c379a0000000000000000000000000000000000000000000000000000000008152600401610bb1906131e7565b60405180910390fd5b60088281548110610bce57610bcd613207565b5b90600052602060002001549050919050565b6000806002600084815260200190815260200160002060009054906101000a900473ffffffffffffffffffffffffffffffffffffffff169050600073ffffffffffffffffffffffffffffffffffffffff168173ffffffffffffffffffffffffffffffffffffffff161415610c89576040517f08c379a0000000000000000000000000000000000000000000000000000000008152600401610c80906132a8565b60405180910390fd5b80915050919050565b60008073ffffffffffffffffffffffffffffffffffffffff168273ffffffffffffffffffffffffffffffffffffffff161415610d03576040517f08c379a0000000000000000000000000000000000000000000000000000000008152600401610cfa9061333a565b60405180910390fd5b600360008373ffffffffffffffffffffffffffffffffffffffff1673ffffffffffffffffffffffffffffffffffffffff168152602001908152602001600020549050919050565b610d526114c1565b73ffffffffffffffffffffffffffffffffffffffff16610d70610e5b565b73ffffffffffffffffffffffffffffffffffffffff1614610dc6576040517f08c379a0000000000000000000000000000000000000000000000000000000008152600401610dbd906130ba565b60405180910390fd5b610dd060006118bc565b565b610dda6114c1565b73ffffffffffffffffffffffffffffffffffffffff16610df8610e5b565b73ffffffffffffffffffffffffffffffffffffffff1614610e4e576040517f08c379a0000000000000000000000000000000000000000000000000000000008152600401610e45906130ba565b60405180910390fd5b610e583382611982565b50565b6000600a60009054906101000a900473ffffffffffffffffffffffffffffffffffffffff16905090565b606060018054610e9490612d62565b80601f0160208091040260200160405190810160405280929190818152602001828054610ec090612d62565b8015610f0d5780601f10610ee257610100808354040283529160200191610f0d565b820191906000526020600020905b815481529060010190602001808311610ef057829003601f168201915b5050505050905090565b610f29610f226114c1565b83836119bc565b5050565b610f3e610f386114c1565b83611582565b610f7d576040517f08c379a0000000000000000000000000000000000000000000000000000000008152600401610f7490612fbc565b60405180910390fd5b610f8984848484611b29565b50505050565b6060610f9a82611455565b610fd9576040517f08c379a0000000000000000000000000000000000000000000000000000000008152600401610fd0906133cc565b60405180910390fd5b6000610fe3611b85565b90506000815111611003576040518060200160405280600081525061102e565b8061100d84611c17565b60405160200161101e929190613428565b6040516020818303038152906040525b915050919050565b61103e6114c1565b73ffffffffffffffffffffffffffffffffffffffff1661105c610e5b565b73ffffffffffffffffffffffffffffffffffffffff16146110b2576040517f08c379a00000000000000000000000000000000000000000000000000000000081526004016110a9906130ba565b60405180910390fd5b600c60009054906101000a900460ff1615600c60006101000a81548160ff021916908315150217905550565b6000600560008473ffffffffffffffffffffffffffffffffffffffff1673ffffffffffffffffffffffffffffffffffffffff16815260200190815260200160002060008373ffffffffffffffffffffffffffffffffffffffff1673ffffffffffffffffffffffffffffffffffffffff16815260200190815260200160002060009054906101000a900460ff16905092915050565b6002600b5414156111b8576040517f08c379a00000000000000000000000000000000000000000000000000000000081526004016111af90613498565b60405180910390fd5b6002600b81905550600c60009054906101000a900460ff1661120f576040517f08c379a000000000000000000000000000000000000000000000000000000000815260040161120690613504565b60405180910390fd5b61012c8161121b610887565b6112259190613553565b1115611266576040517f08c379a000000000000000000000000000000000000000000000000000000000815260040161125d906135f5565b60405180910390fd5b6112703382611982565b6001600b8190555050565b6112836114c1565b73ffffffffffffffffffffffffffffffffffffffff166112a1610e5b565b73ffffffffffffffffffffffffffffffffffffffff16146112f7576040517f08c379a00000000000000000000000000000000000000000000000000000000081526004016112ee906130ba565b60405180910390fd5b600073ffffffffffffffffffffffffffffffffffffffff168173ffffffffffffffffffffffffffffffffffffffff161415611367576040517f08c379a000000000000000000000000000000000000000000000000000000000815260040161135e90613687565b60405180910390fd5b611370816118bc565b50565b60007f80ac58cd000000000000000000000000000000000000000000000000000000007bffffffffffffffffffffffffffffffffffffffffffffffffffffffff1916827bffffffffffffffffffffffffffffffffffffffffffffffffffffffff1916148061143e57507f5b5e139f000000000000000000000000000000000000000000000000000000007bffffffffffffffffffffffffffffffffffffffffffffffffffffffff1916827bffffffffffffffffffffffffffffffffffffffffffffffffffffffff1916145b8061144e575061144d82611d78565b5b9050919050565b60008073ffffffffffffffffffffffffffffffffffffffff166002600084815260200190815260200160002060009054906101000a900473ffffffffffffffffffffffffffffffffffffffff1673ffffffffffffffffffffffffffffffffffffffff1614159050919050565b600033905090565b816004600083815260200190815260200160002060006101000a81548173ffffffffffffffffffffffffffffffffffffffff021916908373ffffffffffffffffffffffffffffffffffffffff160217905550808273ffffffffffffffffffffffffffffffffffffffff1661153c83610be0565b73ffffffffffffffffffffffffffffffffffffffff167f8c5be1e5ebec7d5bd14f71427d1e84f3dd0314c0f7b2291e5b200ac8c7c3b92560405160405180910390a45050565b600061158d82611455565b6115cc576040517f08c379a00000000000000000000000000000000000000000000000000000000081526004016115c390613719565b60405180910390fd5b60006115d783610be0565b90508073ffffffffffffffffffffffffffffffffffffffff168473ffffffffffffffffffffffffffffffffffffffff16148061164657508373ffffffffffffffffffffffffffffffffffffffff1661162e846106ea565b73ffffffffffffffffffffffffffffffffffffffff16145b80611657575061165681856110de565b5b91505092915050565b8273ffffffffffffffffffffffffffffffffffffffff1661168082610be0565b73ffffffffffffffffffffffffffffffffffffffff16146116d6576040517f08c379a00000000000000000000000000000000000000000000000000000000081526004016116cd906137ab565b60405180910390fd5b600073ffffffffffffffffffffffffffffffffffffffff168273ffffffffffffffffffffffffffffffffffffffff161415611746576040517f08c379a000000000000000000000000000000000000000000000000000000000815260040161173d9061383d565b60405180910390fd5b611751838383611de2565b61175c6000826114c9565b6001600360008573ffffffffffffffffffffffffffffffffffffffff1673ffffffffffffffffffffffffffffffffffffffff16815260200190815260200160002060008282546117ac919061385d565b925050819055506001600360008473ffffffffffffffffffffffffffffffffffffffff1673ffffffffffffffffffffffffffffffffffffffff16815260200190815260200160002060008282546118039190613553565b92505081905550816002600083815260200190815260200160002060006101000a81548173ffffffffffffffffffffffffffffffffffffffff021916908373ffffffffffffffffffffffffffffffffffffffff160217905550808273ffffffffffffffffffffffffffffffffffffffff168473ffffffffffffffffffffffffffffffffffffffff167fddf252ad1be2c89b69c2b068fc378daa952ba7f163c4a11628f55a4df523b3ef60405160405180910390a4505050565b6000600a60009054906101000a900473ffffffffffffffffffffffffffffffffffffffff16905081600a60006101000a81548173ffffffffffffffffffffffffffffffffffffffff021916908373ffffffffffffffffffffffffffffffffffffffff1602179055508173ffffffffffffffffffffffffffffffffffffffff168173ffffffffffffffffffffffffffffffffffffffff167f8be0079c531659141344cd1fd0a4f28419497f9722a3daafe3b4186f6b6457e060405160405180910390a35050565b60005b818110156119b7576000611997610887565b90506119a38482611ef6565b5080806119af90613891565b915050611985565b505050565b8173ffffffffffffffffffffffffffffffffffffffff168373ffffffffffffffffffffffffffffffffffffffff161415611a2b576040517f08c379a0000000000000000000000000000000000000000000000000000000008152600401611a2290613926565b60405180910390fd5b80600560008573ffffffffffffffffffffffffffffffffffffffff1673ffffffffffffffffffffffffffffffffffffffff16815260200190815260200160002060008473ffffffffffffffffffffffffffffffffffffffff1673ffffffffffffffffffffffffffffffffffffffff16815260200190815260200160002060006101000a81548160ff0219169083151502179055508173ffffffffffffffffffffffffffffffffffffffff168373ffffffffffffffffffffffffffffffffffffffff167f17307eab39ab6107e8899845ad3d59bd9653f200f220920489ca2b5937696c3183604051611b1c919061273a565b60405180910390a3505050565b611b34848484611660565b611b4084848484611f14565b611b7f576040517f08c379a0000000000000000000000000000000000000000000000000000000008152600401611b76906139b8565b60405180910390fd5b50505050565b6060600d8054611b9490612d62565b80601f0160208091040260200160405190810160405280929190818152602001828054611bc090612d62565b8015611c0d5780601f10611be257610100808354040283529160200191611c0d565b820191906000526020600020905b815481529060010190602001808311611bf057829003601f168201915b5050505050905090565b60606000821415611c5f576040518060400160405280600181526020017f30000000000000000000000000000000000000000000000000000000000000008152509050611d73565b600082905060005b60008214611c91578080611c7a90613891565b915050600a82611c8a9190613a07565b9150611c67565b60008167ffffffffffffffff811115611cad57611cac6129c2565b5b6040519080825280601f01601f191660200182016040528015611cdf5781602001600182028036833780820191505090505b5090505b60008514611d6c57600182611cf8919061385d565b9150600a85611d079190613a38565b6030611d139190613553565b60f81b818381518110611d2957611d28613207565b5b60200101907effffffffffffffffffffffffffffffffffffffffffffffffffffffffffffff1916908160001a905350600a85611d659190613a07565b9450611ce3565b8093505050505b919050565b60007f01ffc9a7000000000000000000000000000000000000000000000000000000007bffffffffffffffffffffffffffffffffffffffffffffffffffffffff1916827bffffffffffffffffffffffffffffffffffffffffffffffffffffffff1916149050919050565b611ded83838361209c565b600073ffffffffffffffffffffffffffffffffffffffff168373ffffffffffffffffffffffffffffffffffffffff161415611e3057611e2b816120a1565b611e6f565b8173ffffffffffffffffffffffffffffffffffffffff168373ffffffffffffffffffffffffffffffffffffffff1614611e6e57611e6d83826120ea565b5b5b600073ffffffffffffffffffffffffffffffffffffffff168273ffffffffffffffffffffffffffffffffffffffff161415611eb257611ead81612257565b611ef1565b8273ffffffffffffffffffffffffffffffffffffffff168273ffffffffffffffffffffffffffffffffffffffff1614611ef057611eef8282612328565b5b5b505050565b611f108282604051806020016040528060008152506123a7565b5050565b6000611f358473ffffffffffffffffffffffffffffffffffffffff16612402565b1561208f578373ffffffffffffffffffffffffffffffffffffffff1663150b7a02611f5e6114c1565b8786866040518563ffffffff1660e01b8152600401611f809493929190613abe565b6020604051808303816000875af1925050508015611fbc57506040513d601f19601f82011682018060405250810190611fb99190613b1f565b60015b61203f573d8060008114611fec576040519150601f19603f3d011682016040523d82523d6000602084013e611ff1565b606091505b50600081511415612037576040517f08c379a000000000000000000000000000000000000000000000000000000000815260040161202e906139b8565b60405180910390fd5b805181602001fd5b63150b7a0260e01b7bffffffffffffffffffffffffffffffffffffffffffffffffffffffff1916817bffffffffffffffffffffffffffffffffffffffffffffffffffffffff191614915050612094565b600190505b949350505050565b505050565b6008805490506009600083815260200190815260200160002081905550600881908060018154018082558091505060019003906000526020600020016000909190919091505550565b600060016120f784610c92565b612101919061385d565b90506000600760008481526020019081526020016000205490508181146121e6576000600660008673ffffffffffffffffffffffffffffffffffffffff1673ffffffffffffffffffffffffffffffffffffffff168152602001908152602001600020600084815260200190815260200160002054905080600660008773ffffffffffffffffffffffffffffffffffffffff1673ffffffffffffffffffffffffffffffffffffffff168152602001908152602001600020600084815260200190815260200160002081905550816007600083815260200190815260200160002081905550505b6007600084815260200190815260200160002060009055600660008573ffffffffffffffffffffffffffffffffffffffff1673ffffffffffffffffffffffffffffffffffffffff16815260200190815260200160002060008381526020019081526020016000206000905550505050565b6000600160088054905061226b919061385d565b905060006009600084815260200190815260200160002054905060006008838154811061229b5761229a613207565b5b9060005260206000200154905080600883815481106122bd576122bc613207565b5b90600052602060002001819055508160096000838152602001908152602001600020819055506009600085815260200190815260200160002060009055600880548061230c5761230b613b4c565b5b6001900381819060005260206000200160009055905550505050565b600061233383610c92565b905081600660008573ffffffffffffffffffffffffffffffffffffffff1673ffffffffffffffffffffffffffffffffffffffff168152602001908152602001600020600083815260200190815260200160002081905550806007600084815260200190815260200160002081905550505050565b6123b18383612415565b6123be6000848484611f14565b6123fd576040517f08c379a00000000000000000000000000000000000000000000000000000000081526004016123f4906139b8565b60405180910390fd5b505050565b600080823b905060008111915050919050565b600073ffffffffffffffffffffffffffffffffffffffff168273ffffffffffffffffffffffffffffffffffffffff161415612485576040517f08c379a000000000000000000000000000000000000000000000000000000000815260040161247c90613bc7565b60405180910390fd5b61248e81611455565b156124ce576040517f08c379a00000000000000000000000000000000000000000000000000000000081526004016124c590613c33565b60405180910390fd5b6124da60008383611de2565b6001600360008473ffffffffffffffffffffffffffffffffffffffff1673ffffffffffffffffffffffffffffffffffffffff168152602001908152602001600020600082825461252a9190613553565b92505081905550816002600083815260200190815260200160002060006101000a81548173ffffffffffffffffffffffffffffffffffffffff021916908373ffffffffffffffffffffffffffffffffffffffff160217905550808273ffffffffffffffffffffffffffffffffffffffff16600073ffffffffffffffffffffffffffffffffffffffff167fddf252ad1be2c89b69c2b068fc378daa952ba7f163c4a11628f55a4df523b3ef60405160405180910390a45050565b8280546125ef90612d62565b90600052602060002090601f0160209004810192826126115760008555612658565b82601f1061262a57805160ff1916838001178555612658565b82800160010185558215612658579182015b8281111561265757825182559160200191906001019061263c565b5b5090506126659190612669565b5090565b5b8082111561268257600081600090555060010161266a565b5090565b6000604051905090565b600080fd5b600080fd5b60007fffffffff0000000000000000000000000000000000000000000000000000000082169050919050565b6126cf8161269a565b81146126da57600080fd5b50565b6000813590506126ec816126c6565b92915050565b60006020828403121561270857612707612690565b5b6000612716848285016126dd565b91505092915050565b60008115159050919050565b6127348161271f565b82525050565b600060208201905061274f600083018461272b565b92915050565b600081519050919050565b600082825260208201905092915050565b60005b8381101561278f578082015181840152602081019050612774565b8381111561279e576000848401525b50505050565b6000601f19601f8301169050919050565b60006127c082612755565b6127ca8185612760565b93506127da818560208601612771565b6127e3816127a4565b840191505092915050565b6000602082019050818103600083015261280881846127b5565b905092915050565b6000819050919050565b61282381612810565b811461282e57600080fd5b50565b6000813590506128408161281a565b92915050565b60006020828403121561285c5761285b612690565b5b600061286a84828501612831565b91505092915050565b600073ffffffffffffffffffffffffffffffffffffffff82169050919050565b600061289e82612873565b9050919050565b6128ae81612893565b82525050565b60006020820190506128c960008301846128a5565b92915050565b6128d881612893565b81146128e357600080fd5b50565b6000813590506128f5816128cf565b92915050565b6000806040838503121561291257612911612690565b5b6000612920858286016128e6565b925050602061293185828601612831565b9150509250929050565b61294481612810565b82525050565b600060208201905061295f600083018461293b565b92915050565b60008060006060848603121561297e5761297d612690565b5b600061298c868287016128e6565b935050602061299d868287016128e6565b92505060406129ae86828701612831565b9150509250925092565b600080fd5b600080fd5b7f4e487b7100000000000000000000000000000000000000000000000000000000600052604160045260246000fd5b6129fa826127a4565b810181811067ffffffffffffffff82111715612a1957612a186129c2565b5b80604052505050565b6000612a2c612686565b9050612a3882826129f1565b919050565b600067ffffffffffffffff821115612a5857612a576129c2565b5b612a61826127a4565b9050602081019050919050565b82818337600083830152505050565b6000612a90612a8b84612a3d565b612a22565b905082815260208101848484011115612aac57612aab6129bd565b5b612ab7848285612a6e565b509392505050565b600082601f830112612ad457612ad36129b8565b5b8135612ae4848260208601612a7d565b91505092915050565b600060208284031215612b0357612b02612690565b5b600082013567ffffffffffffffff811115612b2157612b20612695565b5b612b2d84828501612abf565b91505092915050565b600060208284031215612b4c57612b4b612690565b5b6000612b5a848285016128e6565b91505092915050565b612b6c8161271f565b8114612b7757600080fd5b50565b600081359050612b8981612b63565b92915050565b60008060408385031215612ba657612ba5612690565b5b6000612bb4858286016128e6565b9250506020612bc585828601612b7a565b9150509250929050565b600067ffffffffffffffff821115612bea57612be96129c2565b5b612bf3826127a4565b9050602081019050919050565b6000612c13612c0e84612bcf565b612a22565b905082815260208101848484011115612c2f57612c2e6129bd565b5b612c3a848285612a6e565b509392505050565b600082601f830112612c5757612c566129b8565b5b8135612c67848260208601612c00565b91505092915050565b60008060008060808587031215612c8a57612c89612690565b5b6000612c98878288016128e6565b9450506020612ca9878288016128e6565b9350506040612cba87828801612831565b925050606085013567ffffffffffffffff811115612cdb57612cda612695565b5b612ce787828801612c42565b91505092959194509250565b60008060408385031215612d0a57612d09612690565b5b6000612d18858286016128e6565b9250506020612d29858286016128e6565b9150509250929050565b7f4e487b7100000000000000000000000000000000000000000000000000000000600052602260045260246000fd5b60006002820490506001821680612d7a57607f821691505b60208210811415612d8e57612d8d612d33565b5b50919050565b7f4552433732313a20617070726f76656420717565727920666f72206e6f6e657860008201527f697374656e7420746f6b656e0000000000000000000000000000000000000000602082015250565b6000612df0602c83612760565b9150612dfb82612d94565b604082019050919050565b60006020820190508181036000830152612e1f81612de3565b9050919050565b7f4552433732313a20617070726f76616c20746f2063757272656e74206f776e6560008201527f7200000000000000000000000000000000000000000000000000000000000000602082015250565b6000612e82602183612760565b9150612e8d82612e26565b604082019050919050565b60006020820190508181036000830152612eb181612e75565b9050919050565b7f4552433732313a20617070726f76652063616c6c6572206973206e6f74206f7760008201527f6e6572206e6f7220617070726f76656420666f7220616c6c0000000000000000602082015250565b6000612f14603883612760565b9150612f1f82612eb8565b604082019050919050565b60006020820190508181036000830152612f4381612f07565b9050919050565b7f4552433732313a207472616e736665722063616c6c6572206973206e6f74206f60008201527f776e6572206e6f7220617070726f766564000000000000000000000000000000602082015250565b6000612fa6603183612760565b9150612fb182612f4a565b604082019050919050565b60006020820190508181036000830152612fd581612f99565b9050919050565b7f455243373231456e756d657261626c653a206f776e657220696e646578206f7560008201527f74206f6620626f756e6473000000000000000000000000000000000000000000602082015250565b6000613038602b83612760565b915061304382612fdc565b604082019050919050565b600060208201905081810360008301526130678161302b565b9050919050565b7f4f776e61626c653a2063616c6c6572206973206e6f7420746865206f776e6572600082015250565b60006130a4602083612760565b91506130af8261306e565b602082019050919050565b600060208201905081810360008301526130d381613097565b9050919050565b7f556e61626c6520746f2077697468647261772e00000000000000000000000000600082015250565b6000613110601383612760565b915061311b826130da565b602082019050919050565b6000602082019050818103600083015261313f81613103565b9050919050565b7f4e487b7100000000000000000000000000000000000000000000000000000000600052600160045260246000fd5b7f455243373231456e756d657261626c653a20676c6f62616c20696e646578206f60008201527f7574206f6620626f756e64730000000000000000000000000000000000000000602082015250565b60006131d1602c83612760565b91506131dc82613175565b604082019050919050565b60006020820190508181036000830152613200816131c4565b9050919050565b7f4e487b7100000000000000000000000000000000000000000000000000000000600052603260045260246000fd5b7f4552433732313a206f776e657220717565727920666f72206e6f6e657869737460008201527f656e7420746f6b656e0000000000000000000000000000000000000000000000602082015250565b6000613292602983612760565b915061329d82613236565b604082019050919050565b600060208201905081810360008301526132c181613285565b9050919050565b7f4552433732313a2062616c616e636520717565727920666f7220746865207a6560008201527f726f206164647265737300000000000000000000000000000000000000000000602082015250565b6000613324602a83612760565b915061332f826132c8565b604082019050919050565b6000602082019050818103600083015261335381613317565b9050919050565b7f4552433732314d657461646174613a2055524920717565727920666f72206e6f60008201527f6e6578697374656e7420746f6b656e0000000000000000000000000000000000602082015250565b60006133b6602f83612760565b91506133c18261335a565b604082019050919050565b600060208201905081810360008301526133e5816133a9565b9050919050565b600081905092915050565b600061340282612755565b61340c81856133ec565b935061341c818560208601612771565b80840191505092915050565b600061343482856133f7565b915061344082846133f7565b91508190509392505050565b7f5265656e7472616e637947756172643a207265656e7472616e742063616c6c00600082015250565b6000613482601f83612760565b915061348d8261344c565b602082019050919050565b600060208201905081810360008301526134b181613475565b9050919050565b7f5075626c69632073616c65206973206e6f742061637469766500000000000000600082015250565b60006134ee601983612760565b91506134f9826134b8565b602082019050919050565b6000602082019050818103600083015261351d816134e1565b9050919050565b7f4e487b7100000000000000000000000000000000000000000000000000000000600052601160045260246000fd5b600061355e82612810565b915061356983612810565b9250827fffffffffffffffffffffffffffffffffffffffffffffffffffffffffffffffff0382111561359e5761359d613524565b5b828201905092915050565b7f4d696e7420776f756c6420657863656564206d617820737570706c792e000000600082015250565b60006135df601d83612760565b91506135ea826135a9565b602082019050919050565b6000602082019050818103600083015261360e816135d2565b9050919050565b7f4f776e61626c653a206e6577206f776e657220697320746865207a65726f206160008201527f6464726573730000000000000000000000000000000000000000000000000000602082015250565b6000613671602683612760565b915061367c82613615565b604082019050919050565b600060208201905081810360008301526136a081613664565b9050919050565b7f4552433732313a206f70657261746f7220717565727920666f72206e6f6e657860008201527f697374656e7420746f6b656e0000000000000000000000000000000000000000602082015250565b6000613703602c83612760565b915061370e826136a7565b604082019050919050565b60006020820190508181036000830152613732816136f6565b9050919050565b7f4552433732313a207472616e73666572206f6620746f6b656e2074686174206960008201527f73206e6f74206f776e0000000000000000000000000000000000000000000000602082015250565b6000613795602983612760565b91506137a082613739565b604082019050919050565b600060208201905081810360008301526137c481613788565b9050919050565b7f4552433732313a207472616e7366657220746f20746865207a65726f2061646460008201527f7265737300000000000000000000000000000000000000000000000000000000602082015250565b6000613827602483612760565b9150613832826137cb565b604082019050919050565b600060208201905081810360008301526138568161381a565b9050919050565b600061386882612810565b915061387383612810565b92508282101561388657613885613524565b5b828203905092915050565b600061389c82612810565b91507fffffffffffffffffffffffffffffffffffffffffffffffffffffffffffffffff8214156138cf576138ce613524565b5b600182019050919050565b7f4552433732313a20617070726f766520746f2063616c6c657200000000000000600082015250565b6000613910601983612760565b915061391b826138da565b602082019050919050565b6000602082019050818103600083015261393f81613903565b9050919050565b7f4552433732313a207472616e7366657220746f206e6f6e20455243373231526560008201527f63656976657220696d706c656d656e7465720000000000000000000000000000602082015250565b60006139a2603283612760565b91506139ad82613946565b604082019050919050565b600060208201905081810360008301526139d181613995565b9050919050565b7f4e487b7100000000000000000000000000000000000000000000000000000000600052601260045260246000fd5b6000613a1282612810565b9150613a1d83612810565b925082613a2d57613a2c6139d8565b5b828204905092915050565b6000613a4382612810565b9150613a4e83612810565b925082613a5e57613a5d6139d8565b5b828206905092915050565b600081519050919050565b600082825260208201905092915050565b6000613a9082613a69565b613a9a8185613a74565b9350613aaa818560208601612771565b613ab3816127a4565b840191505092915050565b6000608082019050613ad360008301876128a5565b613ae060208301866128a5565b613aed604083018561293b565b8181036060830152613aff8184613a85565b905095945050505050565b600081519050613b19816126c6565b92915050565b600060208284031215613b3557613b34612690565b5b6000613b4384828501613b0a565b91505092915050565b7f4e487b7100000000000000000000000000000000000000000000000000000000600052603160045260246000fd5b7f4552433732313a206d696e7420746f20746865207a65726f2061646472657373600082015250565b6000613bb1602083612760565b9150613bbc82613b7b565b602082019050919050565b60006020820190508181036000830152613be081613ba4565b9050919050565b7f4552433732313a20746f6b656e20616c7265616479206d696e74656400000000600082015250565b6000613c1d601c83612760565b9150613c2882613be7565b602082019050919050565b60006020820190508181036000830152613c4c81613c10565b905091905056fea264697066735822122046bdef8fa33089ef2bf4562e7dcb38d960ce70820c5554508836f063e22e82ba64736f6c634300080b0033",
  "linkReferences": {},
  "deployedLinkReferences": {}
}